{
  "contractName": "CoinDeployer",
  "abi": [
    {
      "inputs": [
        {
          "name": "_tree",
          "type": "address"
        }
      ],
      "payable": false,
      "stateMutability": "nonpayable",
      "type": "constructor"
    },
    {
      "anonymous": false,
      "inputs": [
        {
          "indexed": false,
          "name": "C",
          "type": "address"
        },
        {
          "indexed": false,
          "name": "author",
          "type": "address"
        }
      ],
      "name": "CoinCreation",
      "type": "event"
    },
    {
      "constant": false,
      "inputs": [
        {
          "name": "_authorAddress",
          "type": "address"
        },
        {
          "name": "_tokenName",
          "type": "string"
        },
        {
          "name": "_tokenSymbol",
          "type": "string"
        },
        {
          "name": "PartnerShares",
          "type": "uint256[]"
        },
        {
          "name": "_NumParams",
          "type": "uint256[]"
        },
        {
          "name": "PartnerArray",
          "type": "address[]"
        }
      ],
      "name": "deployCoin",
      "outputs": [],
      "payable": false,
      "stateMutability": "nonpayable",
      "type": "function"
    },
    {
      "constant": true,
      "inputs": [
        {
          "name": "coin",
          "type": "uint256"
        }
      ],
      "name": "getCoinLocation",
      "outputs": [
        {
          "name": "",
          "type": "address"
        }
      ],
      "payable": false,
      "stateMutability": "view",
      "type": "function"
    }
  ],
  "bytecode": "0x608060405234801561001057600080fd5b506040516020806122d7833981016040525160038054600160a060020a031916600160a060020a03909216919091179055612287806100506000396000f30060806040526004361061004b5763ffffffff7c0100000000000000000000000000000000000000000000000000000000600035041663edcc45788114610050578063eea19a5114610091575b600080fd5b34801561005c57600080fd5b506100686004356101f0565b6040805173ffffffffffffffffffffffffffffffffffffffff9092168252519081900360200190f35b34801561009d57600080fd5b5060408051602060046024803582810135601f81018590048502860185019096528585526101ee95833573ffffffffffffffffffffffffffffffffffffffff1695369560449491939091019190819084018382808284375050604080516020601f89358b018035918201839004830284018301909452808352979a999881019791965091820194509250829150840183828082843750506040805187358901803560208181028481018201909552818452989b9a998901989297509082019550935083925085019084908082843750506040805187358901803560208181028481018201909552818452989b9a998901989297509082019550935083925085019084908082843750506040805187358901803560208181028481018201909552818452989b9a9989019892975090820195509350839250850190849080828437509497506102189650505050505050565b005b60009081526020819052604090205473ffffffffffffffffffffffffffffffffffffffff1690565b805160009061022e9060049060208501906106b7565b506003546004805460018101825560008290527f8a35acfbc15ff81a39ae7d344fd709f28e8600b4aa8c65c6b64bfe7fe36bd19b01805473ffffffffffffffffffffffffffffffffffffffff191673ffffffffffffffffffffffffffffffffffffffff90931692909217909155879087908790879087906102ad610736565b808773ffffffffffffffffffffffffffffffffffffffff1673ffffffffffffffffffffffffffffffffffffffff168152602001806020018060200180602001806020018060200186810386528b818151815260200191508051906020019080838360005b83811015610329578181015183820152602001610311565b50505050905090810190601f1680156103565780820380516001836020036101000a031916815260200191505b5086810385528a5181528a516020918201918c019080838360005b83811015610389578181015183820152602001610371565b50505050905090810190601f1680156103b65780820380516001836020036101000a031916815260200191505b508681038452895181528951602091820191808c01910280838360005b838110156103eb5781810151838201526020016103d3565b50505050905001868103835288818151815260200191508051906020019060200280838360005b8381101561042a578181015183820152602001610412565b50505050905001868103825287818154815260200191508054801561048557602002820191906000526020600020905b815473ffffffffffffffffffffffffffffffffffffffff16815260019091019060200180831161045a575b50509b505050505050505050505050604051809103906000f0801580156104b0573d6000803e3d6000fd5b50905073ffffffffffffffffffffffffffffffffffffffff811615156104d557600080fd5b600354604080517f6465706c6f795472656528616464726573732c75696e743235362c616464726581527f737329000000000000000000000000000000000000000000000000000000000060208201529051908190036023019020845173ffffffffffffffffffffffffffffffffffffffff909216917c01000000000000000000000000000000000000000000000000000000009091049083908690600490811061057c57fe5b60209081029091010151604080517c010000000000000000000000000000000000000000000000000000000063ffffffff861602815273ffffffffffffffffffffffffffffffffffffffff90931660048401526024830191909152306044830152516064808301926000929190829003018183875af192505050151561060157600080fd5b60028054600090815260208181526040808320805473ffffffffffffffffffffffffffffffffffffffff191673ffffffffffffffffffffffffffffffffffffffff8781169182179092558554600190810196879055918d16808652828552838620805493840181558652948490209091019490945580519384529083019190915280517f8505622f9d94ce8a4501ce2a775fe2a8a79be175c72535341b10930d396d81ab9281900390910190a150505050505050565b828054828255906000526020600020908101928215610726579160200282015b82811115610726578251825473ffffffffffffffffffffffffffffffffffffffff191673ffffffffffffffffffffffffffffffffffffffff9091161782556020909201916001909101906106d7565b50610732929150610746565b5090565b604051611ae18061077b83390190565b61077791905b8082111561073257805473ffffffffffffffffffffffffffffffffffffffff1916815560010161074c565b90560060c0604052600460808190527f48302e310000000000000000000000000000000000000000000000000000000060a09081526200004091600691906200028f565b503480156200004e57600080fd5b5060405162001ae138038062001ae183398101604090815281516020830151918301516060840151608085015160a08601519186018051949695860195938401949093918201929091019083906000908110620000a757fe5b9060200190602002015185836007815181101515620000c257fe5b6020908102909101810151600160a060020a038a16600090815260018352604081208590558490558251909188918b9162000103916003918701906200028f565b506004805460ff191660ff85161790558151620001289060059060208501906200028f565b505060078054600160a060020a031916600160a060020a038c16179055505083518492506000915081106200015957fe5b602090810290910101516009558251839060019081106200017657fe5b60209081029091018101513060009081526001928390526040812091909155600a5582518391908110620001a657fe5b60209081029091010151600c55815182906002908110620001c357fe5b60209081029091010151600d55815182906003908110620001e057fe5b60209081029091010151600e55815182906004908110620001fd57fe5b602090810290910101516011558151829060059081106200021a57fe5b602090810290910101516012558151829060069081106200023757fe5b602090810290910181015160145581516200025991601b919084019062000314565b5082516200026f90601c9060208601906200037a565b505060138054600160a060020a0319163317905550620003fe9350505050565b828054600181600116156101000203166002900490600052602060002090601f016020900481019282601f10620002d257805160ff191683800117855562000302565b8280016001018555821562000302579182015b8281111562000302578251825591602001919060010190620002e5565b5062000310929150620003b7565b5090565b8280548282559060005260206000209081019282156200036c579160200282015b828111156200036c5782518254600160a060020a031916600160a060020a0390911617825560209092019160019091019062000335565b5062000310929150620003d7565b82805482825590600052602060002090810192821562000302579160200282018281111562000302578251825591602001919060010190620002e5565b620003d491905b80821115620003105760008155600101620003be565b90565b620003d491905b8082111562000310578054600160a060020a0319168155600101620003de565b6116d3806200040e6000396000f30060806040526004361061017f5763ffffffff7c010000000000000000000000000000000000000000000000000000000060003504166306fdde038114610184578063091e9a601461020e578063095ea7b31461022a57806317727a001461024e57806318160ddd146102655780631a8ebbf81461028c57806323b872dd146102a1578063244a39af146102cb5780632f6301a4146102e0578063313ce567146102f85780633696a81714610323578063410213e21461033b5780634791abe11461036c57806354fd4d501461038d5780635b614794146103a25780635f5fd2e2146103c357806365ab841d146103d857806370a08231146103ed5780637d3d65221461040e57806395d89b41146104235780639f7aee8214610438578063a9059cbb14610459578063c588953e1461047d578063cae9ca5114610492578063cc01ca72146104fb578063cde9f2ea14610534578063dd62ed3e14610549578063ebfdd32d14610570578063ee204abb14610588578063fc6dc17d146105a9575b600080fd5b34801561019057600080fd5b506101996105ca565b6040805160208082528351818301528351919283929083019185019080838360005b838110156101d35781810151838201526020016101bb565b50505050905090810190601f1680156102005780820380516001836020036101000a031916815260200191505b509250505060405180910390f35b610216610658565b604080519115158252519081900360200190f35b34801561023657600080fd5b50610216600160a060020a0360043516602435610a94565b34801561025a57600080fd5b50610263610afa565b005b34801561027157600080fd5b5061027a610b70565b60408051918252519081900360200190f35b34801561029857600080fd5b50610263610b76565b3480156102ad57600080fd5b50610216600160a060020a0360043581169060243516604435610bdc565b3480156102d757600080fd5b50610216610cba565b3480156102ec57600080fd5b50610263600435610cd6565b34801561030457600080fd5b5061030d610d3b565b6040805160ff9092168252519081900360200190f35b34801561032f57600080fd5b50610263600435610d44565b34801561034757600080fd5b50610350610d7e565b60408051600160a060020a039092168252519081900360200190f35b34801561037857600080fd5b50610216600160a060020a0360043516610d8d565b34801561039957600080fd5b50610199610e28565b3480156103ae57600080fd5b50610263600160a060020a0360043516610e83565b3480156103cf57600080fd5b50610263610ee4565b3480156103e457600080fd5b50610216611027565b3480156103f957600080fd5b5061027a600160a060020a0360043516611059565b34801561041a57600080fd5b50610216611074565b34801561042f57600080fd5b5061019961107f565b34801561044457600080fd5b50610216600160a060020a03600435166110da565b34801561046557600080fd5b50610216600160a060020a0360043516602435611175565b34801561048957600080fd5b5061027a6111ff565b34801561049e57600080fd5b50604080516020600460443581810135601f8101849004840285018401909552848452610216948235600160a060020a03169460248035953695946064949201919081908401838280828437509497506112059650505050505050565b34801561050757600080fd5b506105166004356024356113d2565b60408051938452602084019290925282820152519081900360600190f35b34801561054057600080fd5b5061027a6114ed565b34801561055557600080fd5b5061027a600160a060020a03600435811690602435166114f3565b34801561057c57600080fd5b5061027a60043561151e565b34801561059457600080fd5b5061027a600160a060020a036004351661154a565b3480156105b557600080fd5b50610216600160a060020a0360043516611568565b6003805460408051602060026001851615610100026000190190941693909304601f810184900484028201840190925281815292918301828280156106505780601f1061062557610100808354040283529160200191610650565b820191906000526020600020905b81548152906001019060200180831161063357829003601f168201915b505050505081565b33600090815260016020526040812054819081908190151561073e57608060405190810160405280600b548152602001600081526020016040805190810160405280600981526020017f416e6f6e796d6f757300000000000000000000000000000000000000000000008152508152602001600060048111156106d757fe5b9052336000908152601e60209081526040918290208351815583820151600182015591830151805161070f926002850192019061160f565b50606082015160038201805460ff1916600183600481111561072d57fe5b021790555050600b80546001019055505b600d54600e5403600d5442036402540be4000281151561075a57fe5b049250600954600854600a0281151561076f57fe5b046012540283601154020167028f5c28f5c28f60026000190291506014543481151561079757fe5b3060009081526001602052604090208054929091049091039055601454348115156107be57fe5b3360009081526001602090815260409182902080549490930490930190915580517fe46751e30000000000000000000000000000000000000000000000000000000081526004810185905290516801000000000000000092349273__Math__________________________________9263e46751e392602480840193919291829003018186803b15801561085157600080fd5b505af4158015610865573d6000803e3d6000fd5b505050506040513d602081101561087b57600080fd5b50510281151561088757fe5b336000908152601e602052604090206001018054929091049182019055600954600854919250111561097457601054604080517f595b59d70000000000000000000000000000000000000000000000000000000081526015600482015233602482015260448101849052600160a060020a0390921660648301525173__CoinQueueLib2_________________________9163595b59d7916084808301926020929190829003018186803b15801561093d57600080fd5b505af4158015610951573d6000803e3d6000fd5b505050506040513d602081101561096757600080fd5b5051151561097457600080fd5b61097c611074565b15610a7657601060009054906101000a9004600160a060020a0316600160a060020a031660405180807f536574476f616c52656163686564282900000000000000000000000000000000815250601001905060405180910390207c010000000000000000000000000000000000000000000000000000000090046040518163ffffffff167c01000000000000000000000000000000000000000000000000000000000281526004016000604051808303816000875af1925050501515610a4157600080fd5b604080516001815290517f1e61fe9a90d23ee89cf23cb1f66c1188b68372e59b6ad3470f3b26b564e966779181900360200190a15b6008805434908101909155610a8a90610d44565b6001935050505090565b336000818152600260209081526040808320600160a060020a038716808552908352818420869055815186815291519394909390927f8c5be1e5ebec7d5bd14f71427d1e84f3dd0314c0f7b2291e5b200ac8c7c3b925928290030190a350600192915050565b610b02611074565b8015610b0f5750600e5442115b1515610b1a57600080fd5b600754600160a060020a03163314610b3157600080fd5b600754600854604051600160a060020a039092169181156108fc0291906000818181858888f19350505050158015610b6d573d6000803e3d6000fd5b50565b60005481565b60025b601b54811015610b6d57601c805482908110610b9157fe5b906000526020600020015460016000601b84815481101515610baf57fe5b6000918252602080832090910154600160a060020a03168352820192909252604001902055600101610b79565b600160a060020a0383166000908152600160205260408120548211801590610c275750600160a060020a03841660009081526002602090815260408083203384529091529020548211155b1515610c3257600080fd5b600160a060020a03808416600081815260016020908152604080832080548801905593881680835284832080548890039055600282528483203384528252918490208054879003905583518681529351929391927fddf252ad1be2c89b69c2b068fc378daa952ba7f163c4a11628f55a4df523b3ef9281900390910190a35060019392505050565b6000600954600854108015610cd05750600e5442115b90505b90565b610cde611074565b8015610ceb5750600e5442115b1515610cf657600080fd5b601054600160a060020a03163314610d0d57600080fd5b610d15611027565b1515610d2057600080fd5b6000908152601d60205260409020805460ff19166001179055565b60045460ff1681565b6000600762015180600d544203811515610d5a57fe5b04811515610d6457fe5b046000908152601f60205260409020805490920190915550565b601054600160a060020a031681565b60006001600160a060020a0383166000908152601e602052604090206003015460ff166004811115610dbb57fe5b14610dc557600080fd5b600160a060020a0382166000908152601e6020908152604091829020600301805460ff19166002179055815133815291517f5da801b6e57bde18d536d5e32ef866b5fdd927d80101ed20524c269550edf1c79281900390910190a1506001919050565b6006805460408051602060026001851615610100026000190190941693909304601f810184900484028201840190925281815292918301828280156106505780601f1061062557610100808354040283529160200191610650565b601b80546000198101908110610e9557fe5b600091825260209091200154600160a060020a03163314610eb557600080fd5b6010805473ffffffffffffffffffffffffffffffffffffffff1916600160a060020a0392909216919091179055565b6000610eee611074565b8015610efb5750600e5442115b1515610f0657600080fd5b50336000818152600160209081526040808320805493905560105481517f1189dab300000000000000000000000000000000000000000000000000000000815260156004820152602481019590955260448501849052600160a060020a0316606485015251919273__CoinQueueLib2_________________________92631189dab392608480840193919291829003018186803b158015610fa657600080fd5b505af4158015610fba573d6000803e3d6000fd5b505050506040513d6020811015610fd057600080fd5b50511515610fdd57600080fd5b33600160a060020a03166108fc60085483811515610ff757fe5b049081150290604051600060405180830381858888f19350505050158015611023573d6000803e3d6000fd5b5050565b6000611031611074565b801561103e5750600e5442115b151561104957600080fd5b50600a8054600190810190915590565b600160a060020a031660009081526001602052604090205490565b600954600854101590565b6005805460408051602060026001851615610100026000190190941693909304601f810184900484028201840190925281815292918301828280156106505780601f1061062557610100808354040283529160200191610650565b60006003600160a060020a0383166000908152601e602052604090206003015460ff16600481111561110857fe5b1461111257600080fd5b600160a060020a0382166000818152601e6020908152604091829020600301805460ff19166004179055815192835290517f2ede3ac351c71eef2c08079e7a98ae331342822768bb2ec7818b11a8e87cd1839281900390910190a1506001919050565b3360009081526001602052604081205482111561119157600080fd5b33600081815260016020908152604080832080548790039055600160a060020a03871680845292819020805487019055805186815290519293927fddf252ad1be2c89b69c2b068fc378daa952ba7f163c4a11628f55a4df523b3ef929181900390910190a350600192915050565b600e5481565b336000818152600260209081526040808320600160a060020a038816808552908352818420879055815187815291519394909390927f8c5be1e5ebec7d5bd14f71427d1e84f3dd0314c0f7b2291e5b200ac8c7c3b925928290030190a383600160a060020a031660405180807f72656365697665417070726f76616c28616464726573732c75696e743235362c81526020017f616464726573732c627974657329000000000000000000000000000000000000815250602e01905060405180910390207c01000000000000000000000000000000000000000000000000000000009004338530866040518563ffffffff167c01000000000000000000000000000000000000000000000000000000000281526004018085600160a060020a0316600160a060020a0316815260200184815260200183600160a060020a0316600160a060020a03168152602001828051906020019080838360005b8381101561137757818101518382015260200161135f565b50505050905090810190601f1680156113a45780820380516001836020036101000a031916815260200191505b509450505050506000604051808303816000875af19250505015156113c857600080fd5b5060019392505050565b600080600080600080600d54600e5403600d5442036402540be4000289028115156113f957fe5b049250600954600854600a0281151561140e57fe5b0487028389020167028f5c28f5c28f6002600019029150680100000000000000008273__Math__________________________________63e46751e390916040518263ffffffff167c01000000000000000000000000000000000000000000000000000000000281526004018082815260200191505060206040518083038186803b15801561149c57600080fd5b505af41580156114b0573d6000803e3d6000fd5b505050506040513d60208110156114c657600080fd5b5051670de0b6b3a7640000028115156114db57fe5b92999398509091049550909350505050565b600d5481565b600160a060020a03918216600090815260026020908152604080832093909416825291909152205490565b6000818152601f6020526040812054816007820491508160095481151561154157fe5b04949350505050565b600160a060020a03166000908152601e602052604090206001015490565b60006002600160a060020a0383166000908152601e602052604090206003015460ff16600481111561159657fe5b146115a057600080fd5b600160a060020a0382166000908152601e602052604090206003908101805460ff1916600183021790555060408051600160a060020a038416815290517f1fc44c2b44927a36b98c2262da2b66a43bf6395e97a25719577b1bbfa7f279d49181900360200190a1506001919050565b828054600181600116156101000203166002900490600052602060002090601f016020900481019282601f1061165057805160ff191683800117855561167d565b8280016001018555821561167d579182015b8281111561167d578251825591602001919060010190611662565b5061168992915061168d565b5090565b610cd391905b8082111561168957600081556001016116935600a165627a7a72305820fe1fecd38328d07d1e1086f7a20db29e9331e90b52da7329e1ace2feffc401670029a165627a7a72305820085bb10e201f90b7e07c08392a0abd1f7f55a98964e36faca8b7aaba40e7a4e40029",
  "source": "pragma solidity ^0.4.15;\n\nimport \"./Coin.sol\";\n\n\n\ncontract CoinDeployer{\n\nmapping(uint=>address) deployedAddresses;\nmapping(address=>uint[]) CoinIDs;\nuint CoinID;\naddress TreeDeploy;\naddress[] _PartnerArray;\nuint[] _NumParams;\nevent CoinCreation(address C,address author);\nconstructor(address _tree){\nTreeDeploy =_tree;\n}\nfunction deployCoin(\n   address _authorAddress,\n   \n\n   string _tokenName,\n   \n   string _tokenSymbol,\n   uint[] PartnerShares,\n   uint[] _NumParams,\n   address[] PartnerArray\n  \n   ){\n   _PartnerArray=PartnerArray;\n   _PartnerArray.push(TreeDeploy);\n    Coin c= new Coin(_authorAddress,_tokenName,_tokenSymbol,PartnerShares,_NumParams,_PartnerArray);\n    if(address(c)==address(0)) revert();\n\n if(!TreeDeploy.call(bytes4(sha3('deployTree(address,uint256,address)')),address(c),_NumParams[4],address(this))) revert();\n  deployedAddresses[CoinID]=address(c);\n  CoinID+=1;\n  CoinIDs[_authorAddress].push(CoinID);\n emit CoinCreation(address(c),_authorAddress);\n}\n\nfunction getCoinLocation(uint coin) constant returns(address){\n  return deployedAddresses[coin];\n}\n\n\n\n\n\n\n}\n",
  "sourcePath": "/home/john/Documents/OE/OpenEquity/contracts/CoinDeployer.sol",
  "compiler": {
    "name": "solc",
    "version": "0.4.25+commit.59dbf8f1.Emscripten.clang"
  },
  "schemaVersion": "2.0.2",
  "updatedAt": "2019-03-06T20:39:03.691Z"
}