{
  "contractName": "CoinPub",
  "abi": [
    {
      "inputs": [
        {
          "name": "C",
          "type": "address"
        }
      ],
      "payable": false,
      "stateMutability": "nonpayable",
      "type": "constructor"
    },
    {
      "constant": false,
      "inputs": [
        {
          "name": "_customerUsername",
          "type": "bytes"
        }
      ],
      "name": "becomecustomer",
      "outputs": [],
      "payable": false,
      "stateMutability": "nonpayable",
      "type": "function"
    },
    {
      "constant": false,
      "inputs": [
        {
          "name": "_authorName",
          "type": "bytes"
        }
      ],
      "name": "becomeAuthor",
      "outputs": [],
      "payable": false,
      "stateMutability": "nonpayable",
      "type": "function"
    },
    {
      "constant": false,
      "inputs": [
        {
          "name": "_customershipStake",
          "type": "uint256"
        },
        {
          "name": "_tokenName",
          "type": "string"
        },
        {
          "name": "_tokenSymbol",
          "type": "string"
        },
        {
          "name": "_governanceModel",
          "type": "string"
        },
        {
          "name": "_NumParams",
          "type": "uint256[]"
        },
        {
          "name": "_PartnerShares",
          "type": "uint256[]"
        },
        {
          "name": "_PartnerArray",
          "type": "address[]"
        }
      ],
      "name": "createCoinStruct",
      "outputs": [],
      "payable": false,
      "stateMutability": "nonpayable",
      "type": "function"
    },
    {
      "constant": false,
      "inputs": [],
      "name": "publishCoin",
      "outputs": [],
      "payable": false,
      "stateMutability": "nonpayable",
      "type": "function"
    },
    {
      "constant": false,
      "inputs": [
        {
          "name": "n",
          "type": "uint256"
        },
        {
          "name": "m",
          "type": "uint256"
        }
      ],
      "name": "getPartnerShare",
      "outputs": [
        {
          "name": "",
          "type": "uint256"
        }
      ],
      "payable": false,
      "stateMutability": "nonpayable",
      "type": "function"
    },
    {
      "constant": true,
      "inputs": [],
      "name": "getQueuedCoin",
      "outputs": [
        {
          "name": "",
          "type": "uint256"
        }
      ],
      "payable": false,
      "stateMutability": "view",
      "type": "function"
    },
    {
      "constant": true,
      "inputs": [
        {
          "name": "a",
          "type": "address"
        }
      ],
      "name": "getCoins",
      "outputs": [
        {
          "name": "",
          "type": "uint256[]"
        }
      ],
      "payable": false,
      "stateMutability": "view",
      "type": "function"
    }
  ],
  "bytecode": "0x608060405234801561001057600080fd5b50604051602080610af383398101604052516000805560018054600160a060020a03909216600160a060020a03199283161790556002805490911633179055610a958061005e6000396000f3006080604052600436106100825763ffffffff7c01000000000000000000000000000000000000000000000000000000006000350416635d4e0e6881146100875780636ebf84d21461020e578063907f597d14610267578063b752c76314610294578063b9f68d9d14610312578063d298c0091461036b578063ed01da3514610380575b600080fd5b34801561009357600080fd5b5060408051602060046024803582810135601f810185900485028601850190965285855261020c95833595369560449491939091019190819084018382808284375050604080516020601f89358b018035918201839004830284018301909452808352979a99988101979196509182019450925082915084018382808284375050604080516020601f89358b018035918201839004830284018301909452808352979a999881019791965091820194509250829150840183828082843750506040805187358901803560208181028481018201909552818452989b9a998901989297509082019550935083925085019084908082843750506040805187358901803560208181028481018201909552818452989b9a998901989297509082019550935083925085019084908082843750506040805187358901803560208181028481018201909552818452989b9a9989019892975090820195509350839250850190849080828437509497506103959650505050505050565b005b34801561021a57600080fd5b506040805160206004803580820135601f810184900484028501840190955284845261020c9436949293602493928401919081908401838280828437509497506104ea9650505050505050565b34801561027357600080fd5b5061028260043560243561053e565b60408051918252519081900360200190f35b3480156102a057600080fd5b506102c273ffffffffffffffffffffffffffffffffffffffff6004351661055b565b60408051602080825283518183015283519192839290830191858101910280838360005b838110156102fe5781810151838201526020016102e6565b505050509050019250505060405180910390f35b34801561031e57600080fd5b506040805160206004803580820135601f810184900484028501840190955284845261020c9436949293602493928401919081908401838280828437509497506105d49650505050505050565b34801561037757600080fd5b5061028261061a565b34801561038c57600080fd5b5061020c61062e565b60008054600190810180835533808452600c602090815260408086208490558051610100810182529283528282018481528382018d8152606085018d9052608085018c905260a085018a905260c085018b905260e085018990529487526007835295208251815473ffffffffffffffffffffffffffffffffffffffff191673ffffffffffffffffffffffffffffffffffffffff90911617815594519385019390935590518051600a9492936104519260028501929101906108eb565b506060820151805161046d9160038401916020909101906108eb565b50608082015180516104899160048401916020909101906108eb565b5060a082015180516104a5916005840191602090910190610969565b5060c082015180516104c1916006840191602090910190610969565b5060e082015180516104dd9160078401916020909101906109a3565b5050505050505050505050565b6040805180820182528281526000602080830182905233825260048152929020815180519293919261051f92849201906108eb565b50602091909101516001909101805460ff191691151591909117905550565b6000918252600b6020908152604080842092845291905290205490565b73ffffffffffffffffffffffffffffffffffffffff81166000908152600560209081526040918290208054835181840281018401909452808452606093928301828280156105c857602002820191906000526020600020905b8154815260200190600101908083116105b4575b50505050509050919050565b6040805180820182528281526000602080830182905233825260068152929020815180519293919261060992849201906108eb565b506020820151816001015590505050565b336000908152600c60205260409020545b90565b336000908152600c602090815260408083205483526007808352928190206001805483517f6465706c6f79436f696e2820616464726573732c75696e742c737472696e672c81527f20737472696e67202c75696e745b5d2c75696e745b5d2c616464726573735b5d958101959095527f290000000000000000000000000000000000000000000000000000000000000085850152925193849003604101842082548284015463ffffffff7c010000000000000000000000000000000000000000000000000000000093849004908116909302875273ffffffffffffffffffffffffffffffffffffffff918216600488018181526024890183905260028088018054989b9990951699959892979396949560038c019560058d019560068e01958e01949360449093019289926000199083161561010002019091160480156107b65780601f1061078b576101008083540402835291602001916107b6565b820191906000526020600020905b81548152906001019060200180831161079957829003601f168201915b5050858054600181600116156101000203166002900480156108195780601f106107ee57610100808354040283529160200191610819565b820191906000526020600020905b8154815290600101906020018083116107fc57829003601f168201915b5050848054801561084957602002820191906000526020600020905b815481526020019060010190808311610835575b5050838054801561087957602002820191906000526020600020905b815481526020019060010190808311610865575b505082805480156108c057602002820191906000526020600020905b815473ffffffffffffffffffffffffffffffffffffffff168152600190910190602001808311610895575b50509750505050505050506000604051808303816000875af19250505015156108e857600080fd5b50565b828054600181600116156101000203166002900490600052602060002090601f016020900481019282601f1061092c57805160ff1916838001178555610959565b82800160010185558215610959579182015b8281111561095957825182559160200191906001019061093e565b50610965929150610a1e565b5090565b828054828255906000526020600020908101928215610959579160200282018281111561095957825182559160200191906001019061093e565b828054828255906000526020600020908101928215610a12579160200282015b82811115610a12578251825473ffffffffffffffffffffffffffffffffffffffff191673ffffffffffffffffffffffffffffffffffffffff9091161782556020909201916001909101906109c3565b50610965929150610a38565b61062b91905b808211156109655760008155600101610a24565b61062b91905b8082111561096557805473ffffffffffffffffffffffffffffffffffffffff19168155600101610a3e5600a165627a7a72305820d1adabbebc5cdc2cf8aa323802519349887ba999ceb72eb2d120c392628d8bc50029",
  "source": "//CoinStructPub - Decentralized CoinStruct Self-Publishing Platform\r\n//Must work for many, many authors\r\n//Assume authors might have as many as 10,000,000 fans\r\n//Gonna be sweet!\r\n//------------------------------------------------------*\r\n\r\n/* Summary:\r\n// Authors fund Coin publishing by selling licensing equity via micro crowd funding\r\n1) Publish contract with initial supply of 0 and sell coins at fixed price\r\n2) customers purchase coins to reveal eCoin download, and get in line for a hard copy\r\n3) Any amount of coins purchased is acceptable, price as low as a penny if you like\r\n4) The more coins you hold, the higher in line you get to receive your hard copy\r\n5) Every coin you own represents a small piece of equity in licensing rights\r\n6) Equity is determined by the number of coins you hold in proportion to total supply\r\n7) When certain funding goals are met, users at the top of the line are shipped a hard copy\r\n8) Coin holders are legally entitled to licesnsing revenue if a deal is made with a publisher, movie studio, amusementpark, etc.\r\n*/\r\n\r\n\r\n\r\npragma solidity ^0.4.15;\r\n\r\n//import \"./Stoppable.sol\";\r\n//import \"./Coin.sol\";\r\n//import \"./Math.sol\";\r\n\r\ncontract CoinPub  {\r\n    //using Math for *;\r\n    uint CoinID;            //ID applied to Coin upon pub, incrementing after each new Coin\r\n\r\n    address CoinDeploy;\r\n    address owner;\r\n    uint DeployTime;\r\n    function CoinPub(address C){\r\n        CoinID = 0;\r\n\r\n        CoinDeploy=C;\r\n\r\n        owner=msg.sender;\r\n      }\r\n    modifier isOwner() {\r\n      require(msg.sender == owner);\r\n      _;}           //Owner of CoinStructPub Platform\r\n    modifier isAuthor() {\r\n      //  require(authors[msg.sender].totalEarned == 0);\r\n      _;}                                          //Author exists in Author mapping\r\n    modifier iscustomer() {\r\n      //    require(customers[msg.sender].customerUsername);\r\n      _;}                                          //customer exists in customer mapping\r\n\r\n    mapping(address => customer) customers;\r\n    mapping(address=>uint[]) createdCoinIDs;\r\n    mapping(address => Author) authors;\r\n    mapping(uint => CoinStruct) Coins;\r\n    mapping(uint=>uint[]) PartnerArray;\r\n    //mapping(uint => address) CoinInstances;\r\n    mapping(uint => address) getPartner;\r\n    mapping(uint=>bool) isPartner;\r\n    mapping(uint=>mapping(uint=>uint)) partnerShares;\r\n    mapping(address=>uint) QueuedCoin;\r\n    //customer details [customersUsername, CoinIDs purchased array]\r\n    struct customer {\r\n      bytes customerUsername;      //customer's username\r\n      bool eligible;\r\n      //uint[] CoinsPurchased;       //CoinStructIDs of all owned Coins\r\n      }\r\n    //Author details [authorName, totalEarned, CoinID published array]\r\n    struct Author {\r\n       bytes authorName;          //Author's legal name\r\n       uint totalEarned;            //How much has this writer earned?\r\n       //uint[] CoinsPublished;       //CoinStructIDs of all published Coins\r\n      }\r\n\r\n    //CoinStruct details [CoinID, authorAddress, customershipStake, customers array]\r\n    struct CoinStruct {\r\n                   //Global Coin ID ++1\r\n      address authorAddress;       //Who was the author? Can be used to access Authors mapping\r\n      uint _CoinID;\r\n     \r\n\t    string tokenName;\r\n\t    string tokenSymbol;\r\n\t    string governanceModel;\r\n      uint[] PartnerShares;\r\n      uint[] NumParams;\r\n      address[] PartnerArray;\r\n         \r\n      \r\n      \r\n      \r\n      //uint goal\tnumParams[0];\r\n      //uint eligibleCount numParams[1];\r\n\t    //uint startdate numParams[2];\r\n\t    //uint enddate numParams[3];\r\n      //uint   weightCoefficient numParams[4];\r\n      //uint   weightCoefficient2 numParams[5];\r\n      // uint price numParams[6];\r\n      // decimal uints numParams[7]\r\n\t  //How much equity did the author provision for customers?\r\n      }\r\n   /* function addPartner(uint _CoinID,uint8 _share,address p){\r\n      require(isPartner[_CoinID]==false);\r\n      uint i=Coins[CoinID].numPartners;\r\n\t    partnerShares[_CoinID][i]=_share;\r\n      isPartner[_CoinID]=true;\r\n      Coins[_CoinID].Shares.push(_share);\r\n      PartnerArray.push(p);\r\n      \r\n    }\r\n    */\r\n    function becomecustomer(bytes _customerUsername) {\r\n      //customer signs up to buy Coin coins\r\n      customers[msg.sender] = customer({\r\n                                  customerUsername: _customerUsername,\r\n                                  eligible: false\r\n                                  });\r\n                                }\r\n    function becomeAuthor(bytes _authorName) {\r\n      //Author signs up to publish\r\n      authors[msg.sender] = Author({\r\n                                  authorName: _authorName,\r\n                                  totalEarned: 0\r\n                                  });\r\n                                }\r\n\r\n\r\n\r\n    function createCoinStruct (uint _customershipStake,string _tokenName,string _tokenSymbol,string _governanceModel,uint[] _NumParams,uint[] _PartnerShares,address[] _PartnerArray)\r\n      isAuthor() {\r\n       CoinID += 1;\r\n\t\t   uint t=10;\r\n       QueuedCoin[msg.sender]=CoinID;\r\n       //uint[] memory P = new uint[](10);//default 10 possible partners (possibly add option for more or less)\r\n\t\t   //uint[]  P;\r\n\t\t   //P[1]=12;\r\n\r\n\r\n        Coins[CoinID] = CoinStruct({\r\n              \r\n              authorAddress: msg.sender,\r\n              _CoinID:CoinID,\r\n              tokenName:_tokenName,\r\n              tokenSymbol:_tokenSymbol,\r\n\t\t\t\t\t\t\tgovernanceModel:_governanceModel,\r\n               PartnerShares: _PartnerShares,\r\n               NumParams:_NumParams,\r\n               PartnerArray: _PartnerArray\r\n\t\t\t\t\t\t\t\r\n            });\r\n      }\r\n  \r\n\r\n  function publishCoin() {\r\n\r\n  CoinStruct id= Coins[QueuedCoin[msg.sender]];\r\n\r\n   \r\n\r\n    if(!CoinDeploy.call(bytes4(sha3((\"deployCoin( address,uint,string, string ,uint[],uint[],address[])\"))),id.authorAddress,id._CoinID,id.tokenName,id.tokenSymbol,id.PartnerShares,id.NumParams,id.PartnerArray  )) revert();\r\n\r\n\r\n   }\r\n\r\n\r\n  // function getCoinStruct(uint n) public  returns (CoinStruct) {\r\n    // return Coins[n];\r\n   //}\r\n  /* function getStructDetails(uint n) returns(string,string,uint,uint,uint,uint,uint){\r\n     CoinStruct memory b= Coins[n];\r\n     return();\r\n }\r\n */\r\n\r\n  function getPartnerShare(uint n,uint m) public  returns (uint) {\r\n    return  partnerShares[n][m];\r\n  }\r\n\r\n \r\n  function getQueuedCoin() constant returns(uint){\r\n    \r\n    return  QueuedCoin[msg.sender];\r\n\r\n  }\r\n  function getCoins(address a) constant returns(uint[]){\r\n    return createdCoinIDs[a];\r\n  }\r\n\r\n}\r\n",
  "sourcePath": "/home/john/Documents/OE/OpenEquity/contracts/CoinPub.sol",
  "compiler": {
    "name": "solc",
    "version": "0.4.25+commit.59dbf8f1.Emscripten.clang"
  },
  "schemaVersion": "2.0.2",
  "updatedAt": "2019-03-06T20:04:05.626Z"
}