{
  "contractName": "CoinQueueLib2",
  "abi": [
    {
      "constant": false,
      "inputs": [
        {
          "name": "queue",
          "type": "CoinQueueLib2.CoinQueue storage"
        },
        {
          "name": "customer",
          "type": "address"
        },
        {
          "name": "value",
          "type": "uint256"
        },
        {
          "name": "StatisticsTree",
          "type": "address"
        }
      ],
      "name": "insertcustomer",
      "outputs": [
        {
          "name": "",
          "type": "bool"
        }
      ],
      "payable": false,
      "stateMutability": "nonpayable",
      "type": "function"
    },
    {
      "constant": false,
      "inputs": [
        {
          "name": "queue",
          "type": "CoinQueueLib2.CoinQueue storage"
        },
        {
          "name": "customer",
          "type": "address"
        },
        {
          "name": "value",
          "type": "uint256"
        },
        {
          "name": "StatisticsTree",
          "type": "address"
        }
      ],
      "name": "customerWithdraw",
      "outputs": [
        {
          "name": "",
          "type": "bool"
        }
      ],
      "payable": false,
      "stateMutability": "nonpayable",
      "type": "function"
    },
    {
      "constant": false,
      "inputs": [
        {
          "name": "c",
          "type": "address"
        },
        {
          "name": "value",
          "type": "uint256"
        }
      ],
      "name": "CallInsert",
      "outputs": [],
      "payable": false,
      "stateMutability": "nonpayable",
      "type": "function"
    },
    {
      "constant": false,
      "inputs": [
        {
          "name": "c",
          "type": "address"
        },
        {
          "name": "value",
          "type": "uint256"
        }
      ],
      "name": "CallRemove",
      "outputs": [],
      "payable": false,
      "stateMutability": "nonpayable",
      "type": "function"
    }
  ],
  "bytecode": "0x61041f610030600b82828239805160001a6073146000811461002057610022565bfe5b5030600052607381538281f30073000000000000000000000000000000000000000030146080604052600436106100785763ffffffff7c01000000000000000000000000000000000000000000000000000000006000350416631189dab3811461007d578063595b59d7146100cc5780635ca3b3a514610107578063f6e44b131461013a575b600080fd5b81801561008957600080fd5b506100b860043573ffffffffffffffffffffffffffffffffffffffff602435811690604435906064351661016b565b604080519115158252519081900360200190f35b8180156100d857600080fd5b506100b860043573ffffffffffffffffffffffffffffffffffffffff60243581169060443590606435166101bd565b81801561011357600080fd5b5061013873ffffffffffffffffffffffffffffffffffffffff60043516602435610269565b005b81801561014657600080fd5b5061013873ffffffffffffffffffffffffffffffffffffffff60043516602435610330565b73ffffffffffffffffffffffffffffffffffffffff831660009081526001850160205260408120805484810391829055906101a68483610269565b6101b08482610330565b5060019695505050505050565b73ffffffffffffffffffffffffffffffffffffffff831660009081526001850160205260408120548190819015156101fb5760058701805460010190555b73ffffffffffffffffffffffffffffffffffffffff861660009081526001880160205260409020805486810190915591506102368483610269565b5073ffffffffffffffffffffffffffffffffffffffff851660009081526001870160205260409020546101b08482610330565b8173ffffffffffffffffffffffffffffffffffffffff1660405180807f72656d6f76652875696e74323536290000000000000000000000000000000000815250600f01905060405180910390207c01000000000000000000000000000000000000000000000000000000009004826040518263ffffffff167c0100000000000000000000000000000000000000000000000000000000028152600401808281526020019150506000604051808303816000875af192505050151561032c57600080fd5b5050565b8173ffffffffffffffffffffffffffffffffffffffff1660405180807f696e736572742875696e74323536290000000000000000000000000000000000815250600f01905060405180910390207c01000000000000000000000000000000000000000000000000000000009004826040518263ffffffff167c0100000000000000000000000000000000000000000000000000000000028152600401808281526020019150506000604051808303816000875af192505050151561032c57600080fd00a165627a7a72305820d8703c749fd25911ff74a78769db705efba6ca5561576c1b7a279e61233b89060029",
  "source": "library CoinQueueLib2 {\n  //using OrderedStatisticTree for OrderedStatisticTree.Index;\n\n  struct CoinQueue {\n\n  \t\t//bytes32 id;\n\n   \t  mapping(address=>uint) insertOrder;\n\t    mapping(address=>uint) customerBalance;\n\t    mapping(uint=>address) balanceTocustomer;\n  //  mapping(address=>uint) positions;\n      uint greatestCustomerPurchase;\n      address firstInLine;\n\t    uint numbercustomers;\n\n\t}\n\tfunction createQueue()\n    internal\n    returns (CoinQueue)\n  {\n    return CoinQueue({\n      numbercustomers:0,firstInLine:0x3,greatestCustomerPurchase:0\n\n          });\n  }\n\n\n\n\n\tfunction insertcustomer(CoinQueue storage queue,address customer,uint value,address StatisticsTree) returns (bool){\n    \tif(queue.customerBalance[customer]==0){\n    \t  queue.numbercustomers+=1;\n \t\t }\n\t    uint prevBalance=queue.customerBalance[customer];\n\t    queue.customerBalance[customer]+=value;\n\t  // customerValues.remove(prevBalance);\n      CallRemove(StatisticsTree,prevBalance);\n      uint temp=queue.customerBalance[customer];\n\t    CallInsert(StatisticsTree,temp);\n\t  // positions[customer]=customerValues.rank(value);\n\n        return true;\n}\n  function customerWithdraw(CoinQueue storage queue,address customer, uint value,address StatisticsTree) returns(bool){\n       uint prevBalance=queue.customerBalance[customer];\n       queue.customerBalance[customer]-=value;\n       uint temp=queue.customerBalance[customer];\n       CallRemove(StatisticsTree,prevBalance);\n       CallInsert(StatisticsTree,temp);\n       //positions[customer]=customerValues.rank(value);\n       return true;\n\t\t }\n\t\t function CallInsert(address c,uint value){\n\t\t\t if(!c.call(bytes4(keccak256(\"insert(uint256)\")),value )) revert();\n\t\t }\n\t\t function CallRemove(address c,uint value){\n\t \t\tif(!c.call(bytes4(keccak256(\"remove(uint256)\")),value )) revert();\n\t \t}\n\n}\n",
  "sourcePath": "/home/john/Documents/OE/OpenEquity/contracts/CoinQueueLib2.sol",
  "compiler": {
    "name": "solc",
    "version": "0.4.25+commit.59dbf8f1.Emscripten.clang"
  },
  "schemaVersion": "2.0.2",
  "updatedAt": "2019-03-06T20:39:03.667Z"
}