{
  "contractName": "Stoppable",
  "abi": [
    {
      "constant": true,
      "inputs": [],
      "name": "owner",
      "outputs": [
        {
          "name": "",
          "type": "address"
        }
      ],
      "payable": false,
      "stateMutability": "view",
      "type": "function"
    },
    {
      "constant": false,
      "inputs": [
        {
          "name": "newOwner",
          "type": "address"
        }
      ],
      "name": "changeOwner",
      "outputs": [
        {
          "name": "success",
          "type": "bool"
        }
      ],
      "payable": false,
      "stateMutability": "nonpayable",
      "type": "function"
    },
    {
      "constant": true,
      "inputs": [],
      "name": "running",
      "outputs": [
        {
          "name": "",
          "type": "bool"
        }
      ],
      "payable": false,
      "stateMutability": "view",
      "type": "function"
    },
    {
      "inputs": [],
      "payable": false,
      "stateMutability": "nonpayable",
      "type": "constructor"
    },
    {
      "anonymous": false,
      "inputs": [
        {
          "indexed": false,
          "name": "switchSetting",
          "type": "bool"
        }
      ],
      "name": "LogRunSwitch",
      "type": "event"
    },
    {
      "anonymous": false,
      "inputs": [
        {
          "indexed": false,
          "name": "_owner",
          "type": "address"
        },
        {
          "indexed": false,
          "name": "newOwner",
          "type": "address"
        }
      ],
      "name": "LogNewOwner",
      "type": "event"
    },
    {
      "constant": false,
      "inputs": [
        {
          "name": "onOff",
          "type": "bool"
        }
      ],
      "name": "runSwitch",
      "outputs": [
        {
          "name": "success",
          "type": "bool"
        }
      ],
      "payable": false,
      "stateMutability": "nonpayable",
      "type": "function"
    }
  ],
  "bytecode": "0x608060405234801561001057600080fd5b506000805460a060020a60ff0219600160a060020a0319909116331716740100000000000000000000000000000000000000001790556102f8806100556000396000f3006080604052600436106100615763ffffffff7c01000000000000000000000000000000000000000000000000000000006000350416632dd9705881146100665780638da5cb5b14610094578063a6f9dae1146100d2578063d85bd52614610100575b600080fd5b34801561007257600080fd5b506100806004351515610115565b604080519115158252519081900360200190f35b3480156100a057600080fd5b506100a96101b4565b6040805173ffffffffffffffffffffffffffffffffffffffff9092168252519081900360200190f35b3480156100de57600080fd5b5061008073ffffffffffffffffffffffffffffffffffffffff600435166101d0565b34801561010c57600080fd5b506100806102ab565b6000805473ffffffffffffffffffffffffffffffffffffffff16331461013a57600080fd5b6000805483151574010000000000000000000000000000000000000000810274ff0000000000000000000000000000000000000000199092169190911790915560408051918252517fed31ba5dd6d358d47c38232d309f2cdd5f0e58c3eb67621a7f731fe2d7d838d29181900360200190a1506001919050565b60005473ffffffffffffffffffffffffffffffffffffffff1681565b6000805473ffffffffffffffffffffffffffffffffffffffff1633146101f557600080fd5b73ffffffffffffffffffffffffffffffffffffffff8216151561021757600080fd5b6000546040805173ffffffffffffffffffffffffffffffffffffffff9283168152918416602083015280517f1f8d7d25344642d919d55999e4664aa452a5f424bc0936ceb9c2b300db7dcbd99281900390910190a1506000805473ffffffffffffffffffffffffffffffffffffffff831673ffffffffffffffffffffffffffffffffffffffff199091161790556001919050565b60005474010000000000000000000000000000000000000000900460ff16815600a165627a7a72305820ac3ff7705430b5683bd7216473e540c38d1383fb7dd76a6a3910961d513835fd0029",
  "source": "pragma solidity ^0.4.15;\n\nimport \"./Owned.sol\";\n\ncontract Stoppable is Owned {\n\n  bool public running;\n\n  event LogRunSwitch(bool switchSetting);\n\n  modifier onlyIfRunning {\n    if(!running) revert();\n    _;\n  }\n\n  function Stoppable() {\n    running = true;\n  }\n\n  function runSwitch(bool onOff)\n    onlyOwner\n    returns(bool success){\n      running = onOff;\n      LogRunSwitch(onOff);\n      return true;\n    }\n}\n",
  "sourcePath": "/home/john/Documents/OE/Drizzle Template/contracts/Stoppable.sol",
  "compiler": {
    "name": "solc",
    "version": "0.4.24+commit.e67f0147.Emscripten.clang"
  },
  "schemaVersion": "2.0.2",
  "updatedAt": "2019-02-26T18:48:25.641Z"
}